:020000020000FC
:1020000007EB0093E50000E10093E6000FE000938A
:10201000E70000E80093E40008950F921F920F93E9
:102020001F932F933F93AF93BF93EF93FF93125060
:10203000003209F40CE20A52000F000FE2E8F0E26D
:102040000024E00FF01DACEEBB27212F1695A10F49
:1020500034E000EF20FD0295059020FD02941C90D5
:10206000102210281C9215963A95B1F7FF91EF9126
:10207000BF91AF913F912F911F910F911F900F90A2
:102080000895080A0A0E00080A0200000000000075
:102090000A0001050A0008000004090505050801F9
:1020A000010001010E0101010B0100050B000104FB
:1020B0000B0101040F010101010001050F010105E0
:1020C0000B010002000400000000080000080000EE
:1020D0000A010002000400000000000000000105E9
:1020E0000F000109090301040401010901030104AE
:1020F0000E0101040E0001040D0100050F0000088F
:102100000002000105010804060800040401080794
:102110000500000705080105050101050E00010580
:10212000050901050E080102000901080002000569
:102130000501080404040005050C0802000C08024F
:102140000002090000050104040100020008010169
:0E21500001010000000000000001090F0F0F48
:10000000534F4D4520535452494E47204D4F56496A
:080010004E4720000C949801FA
:1002000000E00093000100930101009302010091BE
:100210000001039500230093000111F00C940701E5
:1002200000910101039500230093010111F00C944A
:10023000070100910201039502300093020139F792
:100240000895E0E0F0E0E20F0E945E01C895002D05
:1002500012E00E940D10E0E0F0E0E30F0E945E016A
:10026000C895002D13E00E940D10E0E0F0E0E40FCF
:100270000E945E01C895002D14E00E940D10E0E080
:10028000F0E0E50F0E945E01C895002D15E00E9488
:100290000D10E0E0F0E0E60F0E945E01C895002D31
:1002A00016E00E940D10E0E0F0E0E70F0E945E0112
:1002B000C895002D17E00E940D10089508F00895CC
:1002C000F39588940C945E0190E0E0E0F0E0939563
:1002D000C89531960020D9F79A9508950E9421017A
:1002E000239533954395539563957395291771F02D
:1002F000391779F0491781F0591789F0691791F08A
:10030000791799F00E9400010C946E0120E00C9482
:10031000780130E00C947A0140E00C947C0150E0CC
:100320000C947E0160E00C94800170E00C948201DA
:100330000FEF0DBF04E00EBF0E9400100E94640189
:1003400020E031E042E053E064E075E00E946E019D
:02035000FFCFDD
:00000001FF
