:020000020000FC
:1020000007EB0093E50000E10093E6000FE000938A
:10201000E70000E80093E40008950F921F920F93E9
:102020001F932F933F93AF93BF93EF93FF93125060
:10203000003209F40CE20A52000F000FE2E8F0E26D
:102040000024E00FF01DACEEBB27212F1695A10F49
:1020500034E000EF20FD0295059020FD02941C90D5
:10206000102210281C9215963A95B1F7FF91EF9126
:10207000BF91AF913F912F911F910F911F900F90A2
:102080000895080A0A0E00080A0200000000000075
:102090000A0001050A0008000004090505050801F9
:1020A000010001010E0101010B0100050B000104FB
:1020B0000B0101040F010101010001050F010105E0
:1020C0000B010002000400000000080000080000EE
:1020D0000A010002000400000000000000000105E9
:1020E0000F000109090301040401010901030104AE
:1020F0000E0101040E0001040D0100050F0000088F
:102100000002000105010804060800040401080794
:102110000500000705080105050101050E00010580
:10212000050901050E080102000901080002000569
:102130000501080404040005050C0802000C08024F
:102140000002090000050104040100020008010169
:0E21500001010000000000000001090F0F0F48
:040000000C94F0016B
:040014000C94000147
:100200000F930FB70F931F9300910301003021F458
:10021000109100010C941401013021F4109101019E
:100220000C9414011091020113951A300CF010E097
:10023000003021F4109300010C942601013021F4C8
:10024000109301010C942601109302011F910F914C
:100250000FBF0F91189500910401002311F00C9429
:100260006B01009105010023E1F00C94370107E5D3
:1002700012E00E940D1009E413E00E940D100EE43C
:1002800014E00E940D100EE415E00E940D1005E42C
:1002900016E00E940D1002E517E00E940D100C946C
:1002A0008B010CE412E00E940D100FE413E00E9499
:1002B0000D1003E514E00E940D1005E415E00E9406
:1002C0000D1002E516E00E940D1000E217E00E94FA
:1002D0000D100C948B0100910001005D12E00E9452
:1002E0000D1000E213E00E940D1000910101005D6D
:1002F00014E00E940D1000E215E00E940D10009124
:100300000201005D16E00E940D1000E217E00E945D
:100310000D100C948B0108950E94000108950E9415
:100320002B0113B1107100910601101711F40C94F8
:100330008F011093060100910401002319F00C9421
:10034000AD0100E0039510E0139520E023952F3FC9
:10035000ECF31F3FCCF30F3FACF3109106011123D8
:1003600011F00C948F010E94B7010C948F01009141
:100370000401002341F40E94E40101E00093040120
:1003800078940C94D20100910301023028F4039573
:10039000009303010C94D201F89400E0009304014F
:1003A0000E94D301089500910001109101010117ED
:1003B00039F400910201011719F401E00C94E101F4
:1003C00000E000930501089500E000930001009310
:1003D00001010093020100930501009303010895B8
:1003E0000FEF0DBF04E00EBFF8940E9400101DB186
:1003F000137F0EB10C601DB90EB900E000937F00B1
:1004000014B11F7205B10F6D05B1006D14B905B9B6
:1004100008E00093B60001E00093700003E0009351
:10042000B00000270DBB0E94E40101E0009304012D
:0604300078940C948F018A
:00000001FF
