:020000020000FC
:1020000007EB0093E50000E10093E6000FE000938A
:10201000E70000E80093E40008950F921F920F93E9
:102020001F932F933F93AF93BF93EF93FF93125060
:10203000003209F40CE20A52000F000FE2E8F0E26D
:102040000024E00FF01DACEEBB27212F1695A10F49
:1020500034E000EF20FD0295059020FD02941C90D5
:10206000102210281C9215963A95B1F7FF91EF9126
:10207000BF91AF913F912F911F910F911F900F90A2
:102080000895080A0A0E00080A0200000000000075
:102090000A0001050A0008000004090505050801F9
:1020A000010001010E0101010B0100050B000104FB
:1020B0000B0101040F010101010001050F010105E0
:1020C0000B010002000400000000080000080000EE
:1020D0000A010002000400000000000000000105E9
:1020E0000F000109090301040401010901030104AE
:1020F0000E0101040E0001040D0100050F0000088F
:102100000002000105010804060800040401080794
:102110000500000705080105050101050E00010580
:10212000050901050E080102000901080002000569
:102130000501080404040005050C0802000C08024F
:102140000002090000050104040100020008010169
:0E21500001010000000000000001090F0F0F48
:040000000C94B501A6
:040014000C94000147
:100200000F930FB70F930091570302301CF041F08A
:100210000C94140100915C03002381F00C941401F0
:10022000009156030830B4F30091560303950093F0
:10023000560300E000935C030C94210101E000935D
:100240005C030F910FBF0F9118950E940001089554
:10025000009156030A3010F40C94660100E00093FC
:100260005603009157030395009357030A3010F487
:100270000C94660100E00093570300915803039526
:10028000009358030A3010F40C94660100E00093C8
:10029000580300915903039500935903063010F455
:1002A0000C94660100E00093590300915A030395F2
:1002B00000935A030A3010F40C94660100E0009396
:1002C0005A0300915B03039500935B0308950E941A
:1002D000280100915B03005D12E00E940D10009167
:1002E0005A03005D13E00E940D1000915903005D58
:1002F00014E00E940D1000915803005D15E00E946B
:100300000D1000915703005D16E00E940D10009142
:100310005603005D17E00E940D1008950E946701CA
:100320000CB11CB123B10870147020710023D1F0FE
:100330001123A9F0222311F00C948E0100E0009308
:1003400056030093570300935803009359030093F7
:100350005A0300935B0300935C030C949C01F89494
:100360000C949A0178940C9498010FEF0DBF04E05F
:100370000EBFF8940E9400101DB1137F0EB10C60E7
:100380001DB90EB900E000937F0014B11F7205B1D2
:100390000F6D05B1006D14B905B908E00093B60002
:1003A00001E00093700001E00093B00000270DBB56
:0803B0000E949E010C948E01D5
:00000001FF
