:020000020000FC
:1020000007EB0093E50000E10093E6000FE000938A
:10201000E70000E80093E40008950F921F920F93E9
:102020001F932F933F93AF93BF93EF93FF93125060
:10203000003209F40CE20A52000F000FE2E8F0E26D
:102040000024E00FF01DACEEBB27212F1695A10F49
:1020500034E000EF20FD0295059020FD02941C90D5
:10206000102210281C9215963A95B1F7FF91EF9126
:10207000BF91AF913F912F911F910F911F900F90A2
:102080000895080A0A0E00080A0200000000000075
:102090000A0001050A0008000004090505050801F9
:1020A000010001010E0101010B0100050B000104FB
:1020B0000B0101040F010101010001050F010105E0
:1020C0000B010002000400000000080000080000EE
:1020D0000A010002000400000000000000000105E9
:1020E0000F000109090301040401010901030104AE
:1020F0000E0101040E0001040D0100050F0000088F
:102100000002000105010804060800040401080794
:102110000500000705080105050101050E00010580
:10212000050901050E080102000901080002000569
:102130000501080404040005050C0802000C08024F
:102140000002090000050104040100020008010169
:0E21500001010000000000000001090F0F0F48
:040000000C9400015B
:100200000FEF0DBF04E00EBF0E94001000E010E0F1
:1002100020E030E840E050E060E070E80C94190124
:100220000C941201040F151F261F371F90F10C9418
:100230007101332362F07723DAF0040F151F261FB4
:10024000371F932F90789038D1F10C9471019FEF64
:10025000092719272927392791E0A0E0091F1A1F2C
:100260002A1F3A1F932F9078992329F30C945F014A
:100270009FEF492759276927792791E0A0E0491F77
:100280005A1F6A1F7A1F972F90789923B1F20C9406
:100290005F0103E412E00E940D1001E413E00E94EC
:1002A0000D1002E514E00E940D1002E515E00E9419
:1002B0000D1009E516E00E940D100C9483010FE467
:1002C00012E00E940D1006E513E00E940D1005E4F7
:1002D00014E00E940D1002E515E00E940D100C9430
:1002E000830107E412E00E940D100FE413E00E9466
:1002F0000D100FE414E00E940D1004E415E00E94BC
:080300000D100C948301FFCFE6
:00000001FF
